:0C0000000C9461000C9400000C940000B3
:10000C000C9400000C9400000C9400000C94000064
:10001C000C9400000C9400000C9400000C94000054
:10002C000C9400000C9400000C9400000C94000044
:10003C000C9400000C9400000C9400000C94000034
:10004C000C9400000C9400000C9400000C94000024
:10005C000C9400000C9400000C9400000000616EE5
:10006C00733D257500000F0054656D703D256400CF
:10007C0048656C6C6F21007053756D203D202575A3
:10008C00000080C02D4E414E000001002D4E414E0F
:10009C0000494E46000002000300680001001703EF
:1000AC007200070000037C00020018038E000100A0
:1000BC001C0396000000F894EE27EFBBF1E0F5BFAF
:1000CC00E5BF8DE0A2E0BB27ED938A95E9F780E0D0
:1000DC0098E0A0E0B1E0ED930197E9F7E2EAF0E0F7
:1000EC0085919591009761F0A591B591059015902A
:1000FC00BF01F00105900D920197E1F7FB01F0CFE4
:10010C00E0E0EEBBEFEFEDBFE8E0EEBFC0E0D3E028
:10011C000C949000A0E10E945F01E9E1EA93A9E14F
:10012C001BD03E2E4F2E0E94F605EAE6F0E0FA9325
:10013C00EA93E32DF42D0E94FB050E9404060E9415
:10014C0008060E94E2000E9408060E94EA0012D0F3
:10015C000E940806FCCFFFCFAA931A930A93AB8197
:10016C00BB27EA81F0E0EA0FFB1F8F0119810881A0
:10017C000C945305E0911703EF5FE09317030E9473
:10018C00F605E4E7F0E0FA93EA93E0911703FF2712
:10019C00662777270E94450984E00E94B3042896BD
:1001AC00E0E0EA93A0E00E9420010E940406E1E056
:1001BC00F0E03E0E4F1E0895E0E0EA93A1E03AD045
:1001CC00A0E0B3E065D008951A930A93EAE0EA93AD
:1001DC00A3E2C2DF8F010E94F605E3E8F0E0FA9398
:1001EC00EA93F8010E94FB0532D00E9404060991A3
:1001FC0019910895AA93E5B1EF70AE2FE881E07FD5
:10020C00EA2BE5B98DE08A95F1F72A9A8DE08A956B
:10021C00F1F72A988DE08A95F1F777C0AA93A88117
:10022C00E9DFE881E295E883A881E4DF85E88A9537
:10023C00F1F76BC0AA93E881F0E0E85EFC4FE08137
:10024C00A981AE0FEBDF6980588022960895A2E059
:10025C000E940C06ACE0E2DFA1E00E940C06E0E09C
:10026C005E2E6E2E0895AA93A881AA3011F0681400
:10027C0048F0E0E0EA935394A52DDCDFA881AA3086
:10028C0009F443C06394289AA881C8DF28983DC01C
:10029C00BA93AA931A93A981BA81ED91A983BA83CF
:1002AC001E2FE03019F0A12FDEDFF5CF1881239639
:1002BC000895AA93E4B1E06FE4B9229A209A219AA6
:1002CC002A98289829988880E881E058E0931A03A6
:1002DC00E881E054E0931B03A4E1B0E00E940E0718
:1002EC000E9412060E9412060E941206A0E282DFF1
:1002FC0088EC90E00197F1F7A8E290DFA4E08EDFA4
:10030C00A5E88CDFA6E08ADFA2DF21960895BA93D8
:10031C00AA931A930A93AA81BB8112960E942C0964
:10032C00309729F1AA81BB8114960E942C098F0168
:10033C00309761F00230E0E01E0780F0F801319751
:10034C008F01AA81BB811496ED93FC93AA81BB818A
:10035C0012960E941A063197AC81A083AA81BB81A8
:10036C000E942C09FF2312F00E941A0606C0AA81D3
:10037C00BB81EFEFFFEFED93FC931981088125967C
:10038C0008950E942006E0E8EA83EFE3EB830E94E5
:10039C006209EE85FF85EF3FAFEFFA0749F4E88578
:1003AC00F985FA93EA93A0E9B0E00E94E704B7C09C
:1003BC00EF3FAFE7FA0749F4E885F985FA93EA933A
:1003CC00A1E9B0E00E94E704AAC0AB85A73010F009
:1003DC00E6E0EB871B85E12F1150E03019F00E940D
:1003EC002706F9CFEC85FD856E857F850E945C091B
:1003FC0021F430E00E9427062DC03B850E94360672
:10040C0009F008F40BC00E9427060E94360628F05B
:10041C000E9441060E944606F8CF0DC00E94360687
:10042C0040F40E9441060E9452060E945906315027
:10043C00F5CF0E942706EC85FD856E857F850E9491
:10044C005E060E9459060E94360620F00E94410664
:10045C000E94460610E0EB85E117A8F1AC81BD8146
:10046C008E819F810E9465060E945E06DF01CB0192
:10047C000E943E05EC83FD836E837F830E944106C0
:10048C000E945C080E944B070E2F0E946C060E9473
:10049C007306FF27662777270E948407AC81BD81EE
:1004AC008E819F810E940E080E9441060E94780650
:1004BC000E945906E12F1F5FE03069F60E946C061E
:1004CC00EEE2EC93C8CF0E947D063197AA85A083FB
:1004DC0030302CF43195A885B985EDE203C0A885A0
:1004EC00B985EBE2EC930E947D060E947D06319764
:1004FC00BF01A32FEAE00E94E608E05DDB01EC936C
:10050C000E947D063197BF01A32FEAE00E941009DB
:10051C00E05DDB01EC93A885B985E0E0EC930E94EB
:10052C00690960960895BA93AA93EF9761970E9410
:10053C00600910E0FE01E85AFF4F0190F081E02DB8
:10054C00E887F987FE01EA5AFF4F0190F081E02D10
:10055C00EE83FF83AE81BF81E0E0F0E0ED93FC938E
:10056C00DE01A45ABF4F0E941A063197E4912E2F38
:10057C00E03009F4E9C1E12FE03039F4253211F40F
:10058C0011E002C00E948306DEC1E130C1F42532C5
:10059C0019F40E948306D6C112E0E0E0ED8B00E076
:1005AC002D3211F401E0CFC12B3219F4EBE2ED8BBB
:1005BC00CAC1203219F4E0E2ED8BC5C102C0E230B1
:1005CC0039F450E013E0203311F40068BCC102C0D0
:1005DC00E33091F4203310F02A3308F007C0AAE07E
:1005EC005A9F502DE22FE0535E0FADC140E02E32EA
:1005FC0011F414E0A8C10FC0E43099F4203310F0CA
:10060C002A3308F008C00062AAE04A9F402DE22F6E
:10061C00E0534E0F98C12C3619F4026015E093C1CB
:10062C0003C0E53009F08FC1E22FE33659F40E9484
:10063C008A060E9491060E948A06A481AA930E94AF
:10064C00980680C1E53411F0E53609F403C0E636AE
:10065C0009F048C0FE017696EE87FF870E949E0641
:10066C000E9430090E94A5060E94AA06AD85AA2305
:10067C0032F0AD89AB3259F0A03281F017C00E9434
:10068C00AC060E9418070E94A506EDE2ED8B07FF51
:10069C0005C0ED89EA930E94980608C0EE85FF8597
:1006AC003196EE87FF873197AD89A08305FF46E031
:1006BC00263651F40E94AC060E9445094A93AB8938
:1006CC00BC890E94550509C00E94AC060E944509D0
:1006DC004A932A93AC89BD8954DEFE0176960E941A
:1006EC00B1061EC0E33739F40E94AA060E94B9066F
:1006FC000E94B1060EC0E037C1F40E94AA060E9407
:10070C00B906EE87FF87AE85BF850E9400051E2FB8
:10071C0008600F77403011F0411708F001C0142F1A
:10072C0040E0E0E0EC8B30E06DC0E43611F0E936EF
:10073C0011F4046002C0E537A1F4EAE0EC8B01FF90
:10074C0008C0E0E0FAEC6AE97BE30E94BE061AE01E
:10075C0022C0E0E1F7E260E070E00E94BE0615E026
:10076C001AC0E83511F4086003C0E83709F0EAC094
:10077C00E0E1EC8B01FF08C0E0E0F0E060E070E14C
:10078C000E94BE0618E007C0E0E0F0E160E070E017
:10079C000E94BE0614E0403011F00F7701C041E01A
:1007AC0001FF08C00E94AA060E949E0614960E9491
:1007BC0030090FC002FF07C00E94AA060E94B906AA
:1007CC000E94D30806C00E94AA060E94B90666279A
:1007DC007727EA87FB876C877D8702FF12C0AD8580
:1007EC00AA2342F40E94AC060E94C5080E94A506EA
:1007FC00EDE2ED8BED89E03019F01F5F4F5F01C02A
:10080C000B7F342F00FD14C0151710F4351708F0AA
:10081C000FC007FF08C002FF04C00B7F2D891150C9
:10082C0001C020E301C020E20E9483065150ECCFAE
:10083C00141790F4006102FF06C00E94C30609F071
:10084C00515011504150E0E3EA930E949806503009
:10085C0009F051504150ECCF312FEC89E030B9F414
:10086C003030A1F003FF06C0EE85FF852591EE87A1
:10087C00FF8705C0AE85BF852D91AE87BF870E94CF
:10088C008306503009F051503150EACF51C00E94CC
:10089C00D5060E94EB082E2F2A3030F003FF02C041
:1008AC00295C01C0295A01C0205D04FD21C02133FF
:1008BC0060F4A889B9898A899B89A130E0E0BE07D8
:1008CC00E0E08E07E0E09E0709F40BC0431740F40C
:1008DC00531710F000FF01C010C020E207FF08C042
:1008EC0020E3006102FF04C00E94C30609F05150CE
:1008FC000E948306503009F0515031500E94D506A9
:10090C000E941C090E94A506EC89A889B9898A89CC
:10091C009B89FF27662777270E94EB080E94BE065B
:10092C00E889F9896A897B890E945C0909F0AFCF53
:10093C0000FF08C0503031F05150E0E2EA930E94C1
:10094C009806F8CF10E00CCEAE81BF810E942C0926
:10095C000E946709EF966F960895FF92F82E2697DE
:10096C000E9462090E94DE06309719F4EFEFFFEF48
:10097C0023C0DE0116960E94C1088D010E94DE067E
:10098C00EE83FF83E0E0E887E987DE011A960E9498
:10099C00C1080E942C09FA93EA931A930A93EDE882
:1009AC00F1E0FA93EA93DE011A96BDDD9F01AE8168
:1009BC00BF81E0E0EC93F9010E9469092A96FF904F
:1009CC000895BA93AA93E991F991A991B991CD019E
:1009DC0005900D920020E1F7FC010895BA93AA93BB
:1009EC00A991B991EE27FF276D91662311F03196ED
:1009FC00FBCF0895BA93AA93AA27BB27E991F99143
:100A0C000590002011F01196FBCFFD0108950E9476
:100A1C004A097B816A81F981E88177FB770F67FD51
:100A2C007160972F9E5781F078F0983190F4AA2737
:100A3C00BB27882708948795B795A7959A95D1F7E2
:100A4C00EA23FB23682305C0E8947727EE27FF27CA
:100A5C0066276F77769508F4606877F9A991B99154
:100A6C0089919991EA17FB076807790797FB089515
:100A7C000E944A090E943B090E940D050E944009F0
:100A8C0019F40E94360909C0E6F70E943609A0E065
:100A9C00B0E080E89FE30E94B70724960895CAD07F
:100AAC00E0E0EA83EFE3EB831A930A93EB85FC8592
:100ABC00EF3FAFEFFA0731F482D1A8E9B0E00E9422
:100ACC00E7048AC0EF3FAFE7FA0731F478D1A9E920
:100ADC00B0E00E94E70480C0AC85AA2352F4E985FB
:100AEC00FA856B857C850E9418076ED172D1EDE278
:100AFC00EC93A885A73010F0E6E0E8871885E12F85
:100B0C001150E03021F06CD1DAD06FD1F8CF72D126
:100B1C000E94BE0759D110E0E0E0F0E060E87FE30E
:100B2C0064D168D10E94A10868F05AD1B5D05DD1CA
:100B3C001F5F173230F043D1ADE9B0E00E94E704FB
:100B4C004BC0EFCF103021F444D1E0E3EC9320C044
:100B5C00E12F1150E030E1F043D1B1D0A9D0DF0149
:100B6C00CB010E943E0541D145D10E945C080E94F8
:100B7C004B070E2F2ED1B1D0F0E032D10E94D3080A
:100B8C000E9484070E940E083ED1ACD01DD1E0CF4C
:100B9C00E885E030E9F01DD1EEE2EC93E885E15018
:100BAC00E887EF5FA9F02FD177D00ED1E985FA85D0
:100BBC006B857C850E944B070E2F0BD18ED0F0E0FD
:100BCC0022D10E94D3080E9484078CD0FDD0E6CF9E
:100BDC00AE81BF81E0E0EC93198108812D960895D8
:100BEC00E7E0F3E0FA93EA930895662777270E94EB
:100BFC00450984E00E94B30428960895A7E0B3E069
:100C0C000C944E01A8EEB3E00C940E070E94140154
:100C1C00A3E0B0E00C940E07A0E30E94000188EC66
:100C2C0090E00197F1F70895ED91FD913196FE93C7
:100C3C00EE930895BA93AA932497E0E0E883E983AE
:100C4C000895AC81BD818E819F81E0E0F0E060E28F
:100C5C0071E40E940E08EC83FD836E837F830895FC
:100C6C00EC81FD816E817F81AC85BD858E859F85F4
:100C7C000E94A1080895AC85BD858E859F85089539
:100C8C00EDECFCEC6CEC7DE30E940E08EC87FD8730
:100C9C006E877F873F5F0895E0E0F0E060E271E4EB
:100CAC000E940E080895EC87FD876E877F87089554
:100CBC00A0E0B0E080E09FE30E94BE070895EDEC59
:100CCC00FCEC6CEC7DE30E940E080895A885B985B8
:100CDC001196A887B98711970895E02FE05DEC93E2
:100CEC00E02F08950E944F090E94B7070895E885E8
:100CFC00F9853196E887F98708952A93AF81B885ED
:100D0C00E985FA8509950895FE01E65AFF4F019091
:100D1C00F081E02D08953497DE01A65ABF4FED9374
:100D2C00FC930895AF81B885E985FA8509950895F6
:100D3C00DE01A65ABF4F0D90BC91A02D0895EA87F5
:100D4C00FB876C877D870895DFDFE5CFEA85FB8520
:100D5C006C857D850895EE87FF87AE85BF850E94E3
:100D6C00F4041E2F0895E4DF14960E942C090895B4
:100D7C00E88BF98B6A8B7B8B08950B7FED89EA935B
:100D8C00DE01A95ABF4F0D90BC91A02DFE01E75A70
:100D9C00FF4F0190F081E02D099550300895E889BE
:100DAC00F9896A897B89AA85BB858C859D8508957F
:100DBC00DE011C960E94C1080E942C090895EE8148
:100DCC00FF81FA93EA930895E987FA876B877C870A
:100DDC000895AE81BF811196AE83BF83119708959C
:100DEC00AA81BB818C819D810895EA83FB836C83EE
:100DFC007D830895EA81FB816C817D81A985BA850B
:100E0C008B859C850895A985BA858B859C850895CD
:100E1C00109639F0A89580ED97E00197F1F71197AE
:100E2C00C9F7089530976040704009F070580895E4
:100E3C00552342F4503811F4E0FF04C03196691F79
:100E4C00791F6BF050E8572711F45F93CFC05F3FC9
:100E5C0031F0660F000C57956795752F08955F93C9
:100E6C0000200AF0CFC0C8C050E8192E1522880FF8
:100E7C00991F9527550F879550E8072E0522660F69
:100E8C00771F7527550F67950895689401C0E894EE
:100E9C005F93F2DF703818F07F3F08F4A7C056E17B
:100EAC00571BAAF4519558300EF4593030F0EFEF2F
:100EBC00FFEF6FEF7FE777F91AC077275523B9F06B
:100ECC00EE0FFF1F661F771F5A95D1F710C07727BB
:100EDC00583028F0EF2FF62F672F5850F9CF5523A5
:100EEC0031F076956795F795E7955A95D1F70020EF
:100EFC000AF445D15F910895689401C0E894309745
:100F0C0060407040B1F0002426F0772312F4009476
:100F1C0036D1172E7EE1112032F07A95EE0FFF1F9D
:100F2C00661F111CF9CFEF2FF62F612D5F938ADF0F
:100F3C005F9108954F93AF01FD01DA01AB01BC0144
:100F4C00CA01402D012C142E4F910895EA0FFB1F5E
:100F5C00681F0895E095F0956095EF5FFF4F6F4F18
:100F6C0008955F9381DF903871F150E8152604C025
:100F7C005F937ADF903839F1703821F1572F591B74
:100F8C002BF112F4D7DFFACF583118F0AA27BB2770
:100F9C008827583028F0AB2FB82F88275850F9CF16
:100FAC00552329F08695B795A7955A95D9F7502DC5
:100FBC00512572F0CBDF38F46795F795E79573956B
:100FCC0013F420C0B7DF3EDF5F910895D8F7FBCF55
:100FDC00EA1BFB0B680B51F010F40094BBDF66238B
:100FEC0092F3EE0FFF1F661F7A95CBF7EE27FF27C4
:100FFC00662777275F910895EFEFFFEF6FE77FEF9D
:10100C005F910895EFEFFFEF6FE77FE75F91089532
:10101C005F932ADF703851F3903841F30124089420
:10102C00791F23F41CF300203AF3ECCF0F921F939B
:10103C002F933F934F93112722279927689FA00145
:10104C008F9F302D410D591F6B9F300D411D591F26
:10105C008E9F27D0BF9F25D06A9F23D0BE9F1DD0C7
:10106C00AF9F1BD0AE9F110D291F391F491F591F50
:10107C00E32FF42F652F522F4F913F912F911F91FA
:10108C000F9066232AF0550FEE1FFF1F661F02C03C
:10109C0073954BF2CDDE5F910895100D211D391F14
:1010AC0002C0200D311D491F591F08955F93DCDECE
:1010BC00703821F411200AF49FCFA4CF903809F492
:1010CC0095CF01240894970B1BF4D4F30020F3CF95
:1010DC00792F1F932F933F934F931124112722277E
:1010EC0033274427552790E2AE17BF0786074107E1
:1010FC0030F0AE1BBF0B860B410B089401C08894DB
:10110C00551F221F331F111CAA1FBB1F881F441FF2
:10111C009A9551F7F901612D4F913F912F911F91A4
:10112C00662332F0550FEE1FFF1F661F7A9543F2B0
:10113C007FDE5F91089599239AF0772342F09717F9
:10114C0048F029F4AE17BF07860720F031F09894C9
:10115C008894089598940894089518948894089500
:10116C007723C2F7971798F3A9F7EA17FB076807D5
:10117C0088F399F3ECCF0024AF0DB01D0895F095D2
:10118C0060957095E195FF4F6F4F7F4F0895FE2F3F
:10119C00FF0FFF0B6F2F7F2F08956F2F660F660BBE
:1011AC00762F0895002498E0AA0F001C0E1A10F454
:1011BC000E0E01C0A1609A95B9F7EA2FA02D0895E3
:1011CC0039D0F0DF0EF4E19508953F934F935F9380
:1011DC00002411244427552730E2AA0FBB1F881F77
:1011EC00991F001C111C441F551F0E1A1F0A460B79
:1011FC00570B28F40E0E1F1E461F571F01C0A1606F
:10120C003A9559F7FD01BC01D001CA015F914F918C
:10121C003F910895E894A7FF02C0A1956894E7FD5B
:10122C00E195C0DFEA2F0EF4E1950895CEDFFD01C4
:10123C00BC010895E894E7FF02C0E1956894A7FF0C
:10124C0004C0A19500F8039400FA0895ED91FC9167
:10125C0011970895ED91FD916D917C9113970895DF
:10126C00E881F9816A817B810895A881B9818A819D
:10127C009B810895E883F9836A837B8308957A932D
:10128C006A93FA93EA9308959A938A93BA93AA93DA
:10129C000895182E862F612D192E972F712D1B2E28
:1012AC00BF2FF12D1A2EAE2FE12D089530976040EF
:1012BC00704008955A934A933A932A931A930A9337
:1012CC0008955D814C813B812A81198108810895A3
:00000001FF
